S01D000054656D7065726174757265436F6E74726F6C6C65722E7372656355
S113000012C02AC029C028C027C026C029C324C0C2
S113001023C022C021C020C01FC01EC01DC01CC0E0
S11300201BC01AC019C011241FBECFEDCDBF10E0F4
S1130030A0E6B0E0EAE5F7E002C005900D92A23632
S1130040B107D9F720E0A2E6B0E001C01D92A939BA
S1130050B207E1F7A7D17FC3D3CF87B3806C87BB47
S1130060BD9888B38F7388BB08958FB9769A7699B3
S113007009C08DB18B618DB986E08A95F1F700C016
S1130080769BF7CF0895CF93C62F9298EEDF8C2FEF
S1130090ECDF929ACF91089560E08CE0F4DF08954C
S11300A061E08CE0F0DF0895D8DF67E089E0EBDF02
S11300B063E08BE0E8DFF4DF08951F93CF93DF93D1
S11300C0382FD62F64E614D3282F90E0AC01440FC8
S11300D0551F440F551F480F591FCA01880F991FF8
S11300E0880F991F480F591F440F551F440F551F60
S11300F0832F90E0841B950B6AE070E005D3162FE4
S1130100822F880F880F820FC82FC295CC0FC07E14
S1130110C81BC20FC30F962F9295990F907E961B02
S1130120990F990F961B990FC90F622F81E0ABDFCE
S1130130612F82E0A8DF6C2F83E0A5DF6D2F84E0C0
S1130140A2DFDF91CF911F910895BC9A18BA83B5AD
S1130150816083BD1DBC1CBC83E690E09BBD8ABD51
S113016008958FB580618FBD8EB58B608EBD089567
S11301708FB58F7E8FBD8EB5847F8EBD0895FC01B3
S113018040E080E05CE8219198E0322F38278695A2
S1130190269530FD85279150C1F74F5F461798F398
S11301A00895B89A98E080E0C098869524E02A954E
S11301B0F1F7C09AB89820E12A95F1F7B0998068D0
S11301C0B89AC09A2CE32A95F1F726E02A95F1F71C
S11301D000C0915049F7089598E0C09824E12A9509
S11301E0F1F780FF02C0C09A01C0C0982CE32A95A1
S11301F0F1F78695C09A22E02A95F1F700C0915054
S113020061F70895B89AC09887E592E00197F1F7ED
S113021000C00000C09A92E49A95F1F700C0B89823
S1130220B099FECF8FEE90E00197F1F700C0000087
S1130230B89AC09A8BE291E00197F1F700C00000F0
S11302400895CF93DF93DEDF8CECC6DF84E4C4DF54
S1130250D9DF8CECC1DF8EEBBFDFA3DFCDE8D0E0CC
S113026088839FDF89839DDF8A839BDF8B8399DF6C
S11302708C8397DF8D8395DF8E8393DF8F8391DF6C
S1130280888769E0CE017BDF811111C0898190E00C
S1130290982F88272881822B929582958F708927A1
S11302A09F708927909363008093620002C08091BD
S11302B06200853509F480E0DF91CF910895FC0157
S11302C090916400992319F0913001F10895B19B44
S11302D008C08091650082608093650081E080930E
S11302E06400B29B08C080916500846080936500BF
S11302F081E080936400B39B2BC08091650088608B
S11303008093650081E08093640008958091650086
S113031081FF08C0808181608083809165008D7F2A
S1130320809365008091650082FF06C08B7F809377
S113033065008081826080838091650083FF06C0B0
S1130340877F80936500808184608083109264003D
S11303500895F8948A9A929A479AA6DE09D184E677
S113036090E02ED190E0909369008093680084E639
S113037090E026D190E090936D0080936C0084EF20
S113038091E01ED190E090936B0080936A0088E81E
S113039093E116D190E09093670080936600D5DED8
S11303A078940895CF93DF931F92CDB7DD278EE124
S11303B0809398001092970010929600CADF0F2E37
S11303C0F5E0EF2EF02D01E012E00F2EF3E0FF2E0A
S11303D0F02D6894DD24D2F880916C0090916D002A
S11303E014D1813051F42DDF8093960064E670E0DF
S11303F080916C0090916D0023D180916800909160
S1130400690003D1813051F4CE01019658DF64E6CE
S113041070E0809168009091690012D180919700FA
S1130420823009F47BC030F4882361F0813009F410
S113043047C0D2CF843099F108F46CC0853009F4F8
S11304407AC0CACF8091660090916700DED0813077
S113045041F422DE68E873E18091660090916700C0
S1130460EFD0898182FF0DC01BDE68E873E18091C3
S1130470660090916700E4D089818B7F8983D09254
S1130480970063E68091960018DE90919600809123
S11304909800891708F0A0CFF09297009DCF809123
S11304A0660090916700B1D0813011F410929700EA
S11304B0898182FF91CF8B7F8983009397008CCFB2
S11304C06DE180919800F9DD898180FF08C08091F9
S11304D098008F5F8093980089818E7F89838981BA
S11304E081FF08C080919800815080939800898191
S11304F08D7F8983898182FF6FCF68E873E1809162
S11305006600909167009CD01092970089818B7F40
S1130510898362CFC5DD109397005ECF22DE67E743
S113052080919600CADD898182FF56CFE0929700C0
S11305308B7F898351CF1CDE67E780919600BDDDF8
S11305409091960080919800981748F41092970023
S113055068E873E1809166009091670071D08981A9
S113056082FF3ACF009397008B7F898399DD34CF44
S11305702FB7F89480918C00811120C080E090E026
S1130580FC01EE0FFF1FE80FF91FE259FF4F128223
S11305901182108201968A30910591F78FEF8ABB00
S11305A083B5816083BD82EC82BF83B7836083BFE0
S11305B089B7826089BF81E080938C002FBF089542
S11305C020916000309161002A303105E1F04FB78D
S11305D0F89420916000309161002F5F3F4F309379
S11305E0610020936000F901EE0FFF1F2E0F3F1FE3
S11305F0F901E259FF4F9183808381E082834FBFE9
S113060080916000089580E00895FC01EE0FFF1FC3
S1130610E80FF91FE259FF4F2281213079F4FC01E0
S1130620EE0FFF1F8E0F9F1FFC01E259FF4F208129
S1130630318181E0232B19F080E0089580E0089552
S11306402FB7F894FC01EE0FFF1F8E0F9F1FFC01C4
S1130650E259FF4F81E08283718360832FBF089545
S11306601F920F920FB60F9211242F933F934F9323
S11306705F938F939F93EF93FF9382EC82BF40919C
S113068060005091610080E090E0FC01EE0FFF1FDC
S1130690E80FF91FE259FF4F22812130C1F4FC0118
S11306A0EE0FFF1FE80FF91FE259FF4F2081318140
S11306B0232B69F0FC01EE0FFF1FE80FF91FE2592D
S11306C0FF4F2081318121503109318320830196EC
S11306D048175907D0F6FF91EF919F918F915F9141
S11306E04F913F912F910F900FBE0F901F9018952F
S11306F0991B79E004C0991F961708F0961B881F70
S11307007A95C9F78095089597FB072E16F40094FF
S113071006D077FD08D00BD007FC05D03EF49095A9
S113072081959F4F0895709561957F4F0895AA1BF9
S1130730BB1B51E107C0AA1FBB1FA617B70710F0C8
S1130740A61BB70B881F991F5A95A9F780959095FA
S10D0750BC01CD010895F894FFCF19
S105075AFFFF9B
S9030000FC
