S01D000054656D7065726174757265436F6E74726F6C6C65722E7372656355
S113000012C02AC029C028C027C026C084C224C068
S113001023C022C021C0E6C11FC01EC01DC01CC019
S11300201BC01AC019C011241FBECFEDCDBF10E0F4
S1130030A0E6B0E0E0E1F6E002C005900D92A23641
S1130040B107D9F720E0A2E6B0E001C01D92A239C1
S1130050B207E1F739D1DAC2D3CF87B3806C87BB5B
S1130060BD9888B38F7388BB08958FB9769A7699B3
S113007009C08DB18B618DB986E08A95F1F700C016
S1130080769BF7CF0895CF93C62F9298EEDF8C2FEF
S1130090ECDF929ACF910895E0DF67E089E0F3DF27
S11300A063E08BE0F0DF61E08CE0EDDF08951F9307
S11300B0CF93DF93382FD62F64E675D2282F90E0A4
S11300C0AC01440F551F440F551F480F591FCA0157
S11300D0880F991F880F991F480F591F440F551FE8
S11300E0440F551F832F90E0841B950B6AE070E04A
S11300F066D2162F822F880F880F820FC82FC295C1
S1130100CC0FC07EC81BC20FC30F962F9295990FB8
S1130110907E961B990F990F961B990FC90F622F0A
S113012081E0B1DF612F82E0AEDF6C2F83E0ABDFD3
S11301306D2F84E0A8DFDF91CF911F910895FC011A
S113014040E080E05CE8219198E0322F38278695E2
S1130150269530FD85279150C1F74F5F461798F3D8
S11301600895B89A98E080E0C098869524E02A958E
S1130170F1F7C09AB89820E12A95F1F7B099806810
S1130180B89AC09A2CE32A95F1F726E02A95F1F75C
S113019000C0915049F7089598E0C09824E12A9549
S11301A0F1F780FF02C0C09A01C0C0982CE32A95E1
S11301B0F1F78695C09A22E02A95F1F700C0915094
S11301C061F70895B89AC09887E592E00197F1F72E
S11301D000C00000C09A92E49A95F1F700C0B89864
S11301E0B099FECF8FEE90E00197F1F700C00000C8
S11301F0B89AC09A8BE291E00197F1F700C0000031
S11302000895CF93DF93DEDF8CECC6DF84E4C4DF94
S1130210D9DF8CECC1DF8EEBBFDFA3DFC5E8D0E014
S113022088839FDF89839DDF8A839BDF8B8399DFAC
S11302308C8397DF8D8395DF8E8393DF8F8391DFAC
S1130240888769E0CE017BDF811111C0898190E04C
S1130250982F88272881822B929582958F708927E1
S11302609F708927909363008093620002C08091FD
S11302706200DF91CF910895959A2FE788E391E08A
S1130280215080409040E1F700C000009598089507
S1130290F89417BA18BA81B3846281BB929A479AC8
S11302A08BB780628BBF80B58E6180BD7894F4DE9D
S11302B0BAD084E690E0DFD090E09093650080931C
S11302C06400DADF789408958EE1809391001092AF
S11302D0900010928F00DCDF12E0C1E0D3E0809147
S11302E0640090916500ECD0813051F48ADF8093F2
S11302F08F0064E670E08091640090916500FBD00B
S1130300809190008130F1F038F0823009F444C0DB
S1130310833009F450C0E3CF80918E0082FF05C082
S1130320C09390008B7F80938E0063E680918F0052
S1130330BEDE90918F0080919100891780F6109312
S11303409000CDCF80918E0080FF0AC080919100F3
S11303508F5F8093910080918E008E7F80938E00BA
S113036080918E0081FF0AC080919100815080931A
S1130370910080918E008D7F80938E0080918E00FD
S113038082FF05C0109290008B7F80938E006DE1F8
S1130390809191008CDEA3CF959A67E780918F00BE
S11303A086DE80918E0082FF9ACFD09390008B7F5F
S11303B080938E0094CF959867E780918F0077DEC5
S11303C090918F0080919100981710F410929000F2
S11303D080918E0082FF83CFC09390008B7F8093A7
S11303E08E007DCF1F920F920FB60F9211248F9320
S11303F0B19B05C080918E00816080938E00B29B7A
S113040005C080918E00826080938E00B39B05C0EE
S113041080918E00846080938E008F910F900FBE28
S11304200F901F9018952FB7F89480918400811134
S113043020C080E090E0FC01EE0FFF1FE80FF91FE1
S1130440EA59FF4F12821182108201968A30910577
S113045091F78FEF8ABB83B5816083BD82EC82BF45
S113046083B7836083BF89B7826089BF81E080934B
S113047084002FBF089520916000309161002A30DC
S11304803105E1F04FB7F89420916000309161009C
S11304902F5F3F4F3093610020936000F901EE0F0E
S11304A0FF1F2E0F3F1FF901EA59FF4F91838083ED
S11304B081E082834FBF80916000089580E00895B9
S11304C0FC01EE0FFF1FE80FF91FEA59FF4F2281CD
S11304D0213079F4FC01EE0FFF1F8E0F9F1FFC01EA
S11304E0EA59FF4F2081318181E0232B19F080E00C
S11304F0089580E008952FB7F894FC01EE0FFF1FD4
S11305008E0F9F1FFC01EA59FF4F81E082837183A4
S113051060832FBF08951F920F920FB60F9211247C
S11305202F933F934F935F938F939F93EF93FF93F7
S113053082EC82BF409160005091610080E090E0C5
S1130540FC01EE0FFF1FE80FF91FEA59FF4F22814C
S11305502130C1F4FC01EE0FFF1FE80FF91FEA5927
S1130560FF4F20813181232B69F0FC01EE0FFF1F27
S1130570E80FF91FEA59FF4F2081318121503109D9
S113058031832083019648175907D0F6FF91EF91E4
S11305909F918F915F914F913F912F910F900FBE3B
S11305A00F901F901895991B79E004C0991F961716
S11305B008F0961B881F7A95C9F78095089597FBD4
S11305C0072E16F4009406D077FD08D00BD007FC54
S11305D005D03EF4909581959F4F0895709561954F
S11305E07F4F0895AA1BBB1B51E107C0AA1FBB1F65
S11305F0A617B70710F0A61BB70B881F991F5A95AB
S1130600A9F780959095BC01CD010895F894FFCF8A
S1050610FFFFE6
S9030000FC
