S01D000054656D7065726174757265436F6E74726F6C6C65722E7372656355
S113000012C02AC029C028C027C026C0B0C224C03C
S113001023C022C021C020C01FC01EC01DC01CC0E0
S11300201BC01AC019C011241FBECFEDCDBF10E0F4
S1130030A0E6B0E0E8E6F6E002C005900D92A23634
S1130040B107D9F720E0A2E6B0E001C01D92A739BC
S1130050B207E1F77FD106C3D3CF87B3806C87BBE8
S1130060BD9888B38F7388BB08958FB9769A7699B3
S113007009C08DB18B618DB986E08A95F1F700C016
S1130080769BF7CF0895CF93C62F9298EEDF8C2FEF
S1130090ECDF929ACF910895E0DF67E089E0F3DF27
S11300A063E08BE0F0DF61E08CE0EDDF08951F9307
S11300B0CF93DF93382FD62F64E6A1D2282F90E078
S11300C0AC01440F551F440F551F480F591FCA0157
S11300D0880F991F880F991F480F591F440F551FE8
S11300E0440F551F832F90E0841B950B6AE070E04A
S11300F092D2162F822F880F880F820FC82FC29595
S1130100CC0FC07EC81BC20FC30F962F9295990FB8
S1130110907E961B990F990F961B990FC90F622F0A
S113012081E0B1DF612F82E0AEDF6C2F83E0ABDFD3
S11301306D2F84E0A8DFDF91CF911F910895FC011A
S113014040E080E05CE8219198E0322F38278695E2
S1130150269530FD85279150C1F74F5F461798F3D8
S11301600895B89A98E080E0C098869524E02A958E
S1130170F1F7C09AB89820E12A95F1F7B099806810
S1130180B89AC09A2CE32A95F1F726E02A95F1F75C
S113019000C0915049F7089598E0C09824E12A9549
S11301A0F1F780FF02C0C09A01C0C0982CE32A95E1
S11301B0F1F78695C09A22E02A95F1F700C0915094
S11301C061F70895B89AC09887E592E00197F1F72E
S11301D000C00000C09A92E49A95F1F700C0B89864
S11301E0B099FECF8FEE90E00197F1F700C00000C8
S11301F0B89AC09A8BE291E00197F1F700C0000031
S11302000895CF93DF93DEDF8CECC6DF84E4C4DF94
S1130210D9DF8CECC1DF8EEBBFDFA3DFCBE8D0E00E
S113022088839FDF89839DDF8A839BDF8B8399DFAC
S11302308C8397DF8D8395DF8E8393DF8F8391DFAC
S1130240888769E0CE017BDF811111C0898190E04C
S1130250982F88272881822B929582958F708927E1
S11302609F708927909363008093620002C08091FD
S11302706200DF91CF910895FC019091640099236D
S113028019F0913001F10895B19B08C08091650087
S113029082608093650081E080936400B29B08C013
S11302A08091650084608093650081E080936400A0
S11302B0B39B2BC08091650088608093650081E0CA
S11302C08093640008958091650081FF08C0808157
S11302D081608083809165008D7F8093650080912B
S11302E0650082FF06C08B7F8093650080818260F9
S11302F080838091650083FF06C0877F80936500BB
S1130300808184608083109264000895F89417BA01
S113031018BA81B3846281BB929A479ABDDEAFD08A
S113032084E690E0D4D090E09093670080936600D8
S113033084E690E0CCD090E090936B0080936A00C8
S113034084EF91E0C4D090E09093690080936800BA
S113035078940895CF93DF931F92CDB7DD278EE174
S1130360809396001092950010929400CFDF6894C9
S1130370FF24F1F811E003E080916A0090916B0092
S1130380CBD0813051F43DDF8093940064E670E07B
S113039080916A0090916B00DAD080916600909110
S11303A06700BAD0813051F4CE01019665DF64E66E
S11303B070E08091660090916700C9D080919500AB
S11303C08130D9F030F08230D1F1833009F443C068
S11303D0D3CF898182FF04C0109395008B7F8983DA
S11303E063E68091940063DE90919400809196007E
S11303F0891710F6F0929500BFCF898180FF08C05D
S1130400809196008F5F8093960089818E7F898387
S1130410898181FF08C08091960081508093960065
S113042089818D7F8983898182FF04C01092950020
S11304308B7F89836DE18091960039DE9DCF67E7DC
S11304408091940034DE898182FF96CF00939500D9
S11304508B7F898391CF67E78091940028DE909108
S1130460940080919600981710F410929500898159
S113047082FF82CF109395008B7F89837DCF2FB726
S1130480F89480918A00811120C080E090E0FC0102
S1130490EE0FFF1FE80FF91FE459FF4F128211827C
S11304A0108201968A30910591F78FEF8ABB83B54C
S11304B0816083BD82EC82BF83B7836083BF89B7C9
S11304C0826089BF81E080938A002FBF08952091C4
S11304D06000309161002A303105E1F04FB7F894A3
S11304E020916000309161002F5F3F4F3093610095
S11304F020936000F901EE0FFF1F2E0F3F1FF9013B
S1130500E459FF4F9183808381E082834FBF8091C0
S11305106000089580E00895FC01EE0FFF1FE80FCE
S1130520F91FE459FF4F2281213079F4FC01EE0FC9
S1130530FF1F8E0F9F1FFC01E459FF4F2081318163
S113054081E0232B19F080E0089580E008952FB70F
S1130550F894FC01EE0FFF1F8E0F9F1FFC01E4595E
S1130560FF4F81E08283718360832FBF08951F92C0
S11305700F920FB60F9211242F933F934F935F93D3
S11305808F939F93EF93FF9382EC82BF409160001F
S11305905091610080E090E0FC01EE0FFF1FE80F36
S11305A0F91FE459FF4F22812130C1F4FC01EE0F01
S11305B0FF1FE80FF91FE459FF4F20813181232BDE
S11305C069F0FC01EE0FFF1FE80FF91FE459FF4F1C
S11305D020813181215031093183208301964817CC
S11305E05907D0F6FF91EF919F918F915F914F91B1
S11305F03F912F910F900FBE0F901F901895991B4C
S113060079E004C0991F961708F0961B881F7A9505
S1130610C9F78095089597FB072E16F4009406D029
S113062077FD08D00BD007FC05D03EF4909581955A
S11306309F4F0895709561957F4F0895AA1BBB1B2A
S113064051E107C0AA1FBB1FA617B70710F0A61BCE
S1130650B70B881F991F5A95A9F780959095BC01EF
S10B0660CD010895F894FFCFC9
S1050668FFFF8E
S9030000FC
