S01D000054656D7065726174757265436F6E74726F6C6C65722E7372656355
S113000092C09FC09EC09DC09CC09BC09AC099C016
S113001098C097C096C028C294C093C092C091C0A3
S113002090C08FC08EC0005EBCE2613FDD83C29C85
S11300307E20A3FD1F419DC3217FFCA2401E5F01C2
S1130040E3BD3E6082DC237D9FC1421CFEA0E1BF74
S11300505D0380DE3C62BEE0025CDF81633D7C22A6
S1130060C09E1D43A1FF4618FAA427799BC584DAD4
S11300703866E5BB5907DB856739BAE40658194782
S1130080A5FB7826C49A653BD987045AB8E6A7F934
S11300901B45C6987A24F8A6441A99C7257B3A6466
S11300A086D85B05E7B98CD2306EEDB3510F4E1094
S11300B0F2AC2F7193CD114FADF3702ECC92D38D42
S11300C06F31B2EC0E50AFF1134DCE90722C6D33F4
S11300D0D18F0C52B0EE326C8ED0530DEFB1F0AE26
S11300E04C1291CF2D73CA947628ABF51749085654
S11300F0B4EA6937D58B5709EBB536688AD495CB02
S11301002977F4AA4816E9B7550B88D6346A2B75B3
S113011097C94A14F6A8742AC896154BA9F7B6E8E5
S11301200A54D7896B3511241FBECFEDCDBF20E013
S1130130A0E6B0E001C01D92AD36B207E1F716D1DA
S1130140E7C15ECF87B3806D87BBBD9888B38F72DC
S113015088BB08958FB9769A769909C08DB18B6161
S11301608DB98DE08A95F1F70000769BF7CF08955D
S1130170CF93C62F9298EEDF8C2FECDF929ACF911B
S11301800895E0DF67E089E0F3DF63E08BE0F0DF10
S113019061E08CE0EDDF08951F93CF93DF93382F58
S11301A0D62F64E682D1282F90E0AC01440F551F6E
S11301B0440F551F480F591FCA01880F991F880FF4
S11301C0991F480F591F440F551F440F551F832F64
S11301D090E0841B950B6AE070E073D1162F822F98
S11301E0880F880F820FC82FC295CC0FC07EC81B02
S11301F0C20FC30F962F9295990F907E961B990F5D
S1130200990F961B990FC90F622F81E0B1DF612FFF
S113021082E0AEDF6C2F83E0ABDF6D2F84E0A8DFDC
S1130220DF91CF911F910895B89AC0988FEA94E016
S11302300197F1F700C00000C09A95E89A95F1F78C
S11302400000B898B099FECF8FED91E00197F1F7D7
S113025000C00000B89AC09A87E592E00197F1F7D0
S113026000C000000895B89A98E080E0C098869590
S113027028E02A95F1F7C09AB89820E22A95F1F778
S1130280B0998068B89AC09A28E72A95F1F72DE0CA
S11302902A95F1F70000915049F7089598E0C09825
S11302A028E22A95F1F780FF02C0C09A01C0C098E5
S11302B028E72A95F1F78695C09A25E02A95F1F763
S11302C00000915061F70895CF93DF93ADDF8CEC7C
S11302D0E5DF84E4E3DFA8DF8CECE0DF8EEBDEDF38
S11302E0C2DFC0E6D0E08883BEDF8983BCDF8A83B7
S11302F0BADF8B83B8DF8C83B6DF8D83B4DF8E8364
S1130300B2DF8F83B0DF8887AAE6B0E021E630E071
S1130310E0E08E91E827F0E0EA5DFF4FE081A2176C
S1130320B307B9F7E1110FC0E0E6F0E0818190E096
S1130330982F88272081822B929582958F70892708
S11303409F70892701C080E0DF91CF91089517BA8B
S113035018BA81B3846281BB929A8BB780628BBFD7
S113036080B58E6180BD78940CDF08958EE1809312
S11303706C0010926B0010926A00E9DF12E0C1E099
S1130380D3E0A2DF80936A0090916B009130E1F09A
S113039038F0923009F442C0933009F44EC0F1CFE2
S11303A09091690092FF05C0C0936B009B7F90936E
S11303B0690063E6F1DE90916A0080916C00891710
S11303C000F710936B00DDCF8091690080FF0AC0B5
S11303D080916C008F5F80936C00809169008E7FA8
S11303E0809369008091690081FF0AC080916C004C
S11303F0815080936C00809169008D7F80936900A7
S11304008091690082FF05C010926B008B7F8093FE
S113041069006DE180916C00BFDEB3CF959A67E708
S113042080916A00B9DE8091690082FFAACFD093DF
S11304306B008B7F80936900A4CF959867E78091C8
S11304406A00AADE90916A0080916C00981710F4FB
S113045010926B008091690082FF93CFC0936B0070
S11304608B7F809369008DCF1F920F920FB60F92EE
S113047011248F93B19B05C08091690081608093A2
S11304806900B29B05C08091690082608093690015
S1130490B39B05C0809169008460809369008F914B
S11304A00F900FBE0F901F901895991B79E004C010
S11304B0991F961708F0961B881F7A95C9F780959F
S11304C0089597FB072E16F4009406D077FD08D004
S11304D00BD007FC05D03EF4909581959F4F08956D
S11304E0709561957F4F0895AA1BBB1B51E107C00E
S11304F0AA1FBB1FA617B70710F0A61BB70B881FB0
S1130500991F5A95A9F780959095BC01CD0108953E
S1070510F894FFCF89
S9030000FC
