:1000000092C09FC09EC09DC09CC09BC066C299C04C
:1000100098C097C096C040C294C093C092C091C08F
:1000200090C08FC08EC0005EBCE2613FDD83C29C89
:100030007E20A3FD1F419DC3217FFCA2401E5F01C6
:10004000E3BD3E6082DC237D9FC1421CFEA0E1BF78
:100050005D0380DE3C62BEE0025CDF81633D7C22AA
:10006000C09E1D43A1FF4618FAA427799BC584DAD8
:100070003866E5BB5907DB856739BAE40658194786
:10008000A5FB7826C49A653BD987045AB8E6A7F938
:100090001B45C6987A24F8A6441A99C7257B3A646A
:1000A00086D85B05E7B98CD2306EEDB3510F4E1098
:1000B000F2AC2F7193CD114FADF3702ECC92D38D46
:1000C0006F31B2EC0E50AFF1134DCE90722C6D33F8
:1000D000D18F0C52B0EE326C8ED0530DEFB1F0AE2A
:1000E0004C1291CF2D73CA947628ABF51749085658
:1000F000B4EA6937D58B5709EBB536688AD495CB06
:100100002977F4AA4816E9B7550B88D6346A2B75B7
:1001100097C94A14F6A8742AC896154BA9F7B6E8E9
:100120000A54D7896B3511241FBECFEDCDBF20E017
:10013000A0E6B0E001C01D92AE36B207E1F723D1D0
:1001400017C25ECF87B3806D87BBBD9888B38F72AF
:1001500088BB08958FB9769A769909C08DB18B6165
:100160008DB98DE08A95F1F70000769BF7CF089561
:10017000CF93C62F9298EEDF8C2FECDF929ACF911F
:100180000895E0DF67E089E0F3DF63E08BE0F0DF14
:1001900061E08CE0EDDF08951F93CF93DF93382F5C
:1001A000D62F64E6B2D1282F90E0AC01440F551F42
:1001B000440F551F480F591FCA01880F991F880FF8
:1001C000991F480F591F440F551F440F551F832F68
:1001D00090E0841B950B6AE070E0A3D1162F822F6C
:1001E000880F880F820FC82FC295CC0FC07EC81B06
:1001F000C20FC30F962F9295990F907E961B990F61
:10020000990F961B990FC90F622F81E0B1DF612F03
:1002100082E0AEDF6C2F83E0ABDF6D2F84E0A8DFE0
:10022000DF91CF911F910895B89AC0988FEA94E01A
:100230000197F1F700C00000C09A95E89A95F1F790
:100240000000B898B099FECF8FED91E00197F1F7DB
:1002500000C00000B89AC09A87E592E00197F1F7D4
:1002600000C000000895B89A98E080E0C098869594
:1002700028E02A95F1F7C09AB89820E22A95F1F77C
:10028000B0998068B89AC09A28E72A95F1F72DE0CE
:100290002A95F1F70000915049F7089598E0C09829
:1002A00028E22A95F1F780FF02C0C09A01C0C098E9
:1002B00028E72A95F1F78695C09A25E02A95F1F767
:1002C0000000915061F70895CF93DF93ADDF8CEC80
:1002D000E5DF84E4E3DFA8DF8CECE0DF8EEBDEDF3C
:1002E000C2DFC1E6D0E08883BEDF8983BCDF8A83BA
:1002F000BADF8B83B8DF8C83B6DF8D83B4DF8E8368
:10030000B2DF8F83B0DF8887ABE6B0E022E630E073
:10031000E0E08E91E827F0E0EA5DFF4FE081A21770
:10032000B307B9F7E1110FC0E1E6F0E0818190E099
:10033000982F88272081822B929582958F7089270C
:100340009F70892701C080E0DF91CF91089583B528
:10035000816083BD89B7826089BF83B7856083BFB1
:100360000895F89417BA18BA81B3846281BB929A3F
:100370008BB780628BBF80B58E6180BD789401DFC2
:10038000E6DF789408958EE180936D0010926C0002
:1003900010926B00E6DFC1E012E0D3E080916C00C8
:1003A000823009F44DC028F4882351F08130F1F0F7
:1003B000F7CF833009F453C0843009F467C0F0CF1D
:1003C00080916A0082FF05C0C0936C008B7F809390
:1003D0006A0063E680916B00DFDE90916B00809194
:1003E0006D008917D8F610936C00D8CF80916A0001
:1003F00080FF0AC080916D008F5F80936D008091B7
:100400006A008E7F80936A0080916A0081FF0AC033
:1004100080916D00815080936D0080916A008D7F86
:1004200080936A0080916A0082FF05C010926C0080
:100430008B7F80936A006DE180916D00ADDEAECF61
:10044000959A67E780916B00A7DE80916A0082FF32
:10045000A5CFD0936C008B7F80936A009FCF959837
:1004600067E780916B0098DE90916B0080916D0042
:10047000981710F410926C0080916A0082FF8ECF62
:10048000C0936C008B7F80936A0088CF1DDF8093C0
:100490006B0010926C0082CF1F920F920FB60F92DA
:1004A00011248F93B19B05C080916A008160809375
:1004B0006A00B29B05C080916A00826080936A00E6
:1004C000B39B05C080916A00846080936A008F911D
:1004D0000F900FBE0F901F9018951F920F920FB69E
:1004E0000F9211248F93809160008F5F8093600042
:1004F000853029F484E080936C00109260008F9125
:100500000F900FBE0F901F901895991B79E004C0B3
:10051000991F961708F0961B881F7A95C9F7809542
:10052000089597FB072E16F4009406D077FD08D0A7
:100530000BD007FC05D03EF4909581959F4F089510
:10054000709561957F4F0895AA1BBB1B51E107C0B1
:10055000AA1FBB1FA617B70710F0A61BB70B881F53
:10056000991F5A95A9F780959095BC01CD010895E2
:04057000F894FFCF2D
:00000001FF
