:1000000012C01FC01EC01DC01CC01BC01AC019C01A
:1000100018C017C016C0BFC114C013C012C011C091
:1000200010C00FC00EC011241FBECFEDCDBF20E009
:10003000A0E6B0E001C01D92A037B207E1F72DD1D4
:100040002AC3DECF87B3806D87BBBD9888B38F721C
:1000500088BB08958FB9769A769909C08DB18B6166
:100060008DB98DE08A95F1F70000769BF7CF089562
:10007000CF93C62F9298EEDF8C2FECDF929ACF9120
:10008000089561E08CE0F4DF089567E089E0F0DF37
:10009000089563E08BE0ECDF0895682F84E0E8DFEB
:1000A0000895D0DFF2DFF5DFECDF83E6F6DF0895B9
:1000B000809360000895CF93DF93382F64E6B8D221
:1000C000282F90E0AC01440F551F440F551F480FD7
:1000D000591FCA01880F991F880F991F480F591F70
:1000E000440F551F440F551F832F90E0841B950B21
:1000F0006AE070E0A9D2D62F822F880F880F820F76
:10010000C82FC295CC0FC07EC81BC20FC30F962F3D
:100110009295990F907E961B990F990F961B990FA8
:10012000C90F622F81E0A4DF6D2F82E0A1DF6C2F69
:1001300083E09EDF80916000811103C083E6ADDF24
:1001400002C08DE1AADFDF91CF9108958093640012
:1001500060936700409361002093660081E0809384
:1001600062000895B89AC0988FEA94E00197F1F779
:1001700000C00000C09A95E89A95F1F70000B89881
:10018000B099FECF8FED91E00197F1F700C000002C
:10019000B89AC09A87E592E00197F1F700C0000095
:1001A0000895B89A98E080E0C098869528E02A954E
:1001B000F1F7C09AB89820E22A95F1F7B0998068D3
:1001C000B89AC09A28E72A95F1F72DE02A95F1F719
:1001D0000000915049F7089598E0C09828E22A95C8
:1001E000F1F780FF02C0C09A01C0C09828E72A95A5
:1001F000F1F78695C09A25E02A95F1F70000915015
:1002000061F70895AFDF8CECE7DF84E4E5DFAADF78
:100210008CECE2DF8EEBE0DFC4DF80936800C1DFAF
:1002200080936300682F70E0762F662780916800C6
:10023000682B80E090E003D120E030E040E85DE30F
:1002400064D1D1D0862F609365000895959A2FEFE1
:1002500080E792E0215080409040E1F700C000002C
:10026000959808958BB780628BBF80B58E6180BDF5
:100270007894089517BA18BA81B3846281BB929AB0
:10028000F1DF0FDF20E030E040E050E060E070E0C0
:1002900080E090E05BDFDADF089510926E0010924C
:1002A0006D0010926C0010926B0010926A00E2DFF9
:1002B0000CE610E0FF24F394CAE6D0E0A3DF90E060
:1002C00090936D0080936C0080916E00882319F0EC
:1002D0008130D1F0F3CF80E0EBDE8091690082FFC6
:1002E0000FC080916C0090916D0090936B00809393
:1002F0006A00F0926E00809169008B7F80936900A4
:10030000F8018081D8DEDACF8F2DD2DE80916900AE
:1003100080FF0EC080916A0090916B0001969093CF
:100320006B0080936A00809169008E7F80936900E2
:100330008091690081FF0EC080916A0090916B00EE
:10034000019790936B0080936A00809169008D7F84
:10035000809369008091690083FF07C010926B0051
:1003600010926A00877F809369008091690082FF04
:100370000FC080916A0090916B0090936D00809304
:100380006C0010926E00809169008B7F80936900F1
:10039000888191DE93CF1F920F920FB60F92112496
:1003A0008F93B19B05C08091690081608093690043
:1003B000B29B05C080916900826080936900B39B05
:1003C00005C080916900846080936900B49B05C07A
:1003D000809169008860809369008F910F900FBEB3
:1003E0000F901F90189570D088F09F5790F0B92FFC
:1003F0009927B751A0F0D1F0660F771F881F991F7A
:100400001AF0BA95C9F712C0B13081F077D0B1E0D7
:10041000089574C0672F782F8827B85F39F0B93FE7
:10042000CCF3869577956795B395D9F73EF490957B
:100430008095709561957F4F8F4F9F4F0895E894F9
:1004400009C097FB3EF490958095709561957F4F1C
:100450008F4F9F4F9923A9F0F92F96E9BB279395CA
:10046000F695879577956795B795F111F8CFFAF4DA
:10047000BB0F11F460FF1BC06F5F7F4F8F4F9F4F0B
:1004800016C0882311F096E911C0772321F09EE869
:10049000872F762F05C0662371F096E8862F70E0CF
:1004A00060E02AF09A95660F771F881FDAF7880FA9
:1004B0009695879597F9089557FD9058440F551FC5
:1004C00059F05F3F71F04795880F97FB991F61F0D6
:1004D0009F3F79F087950895121613061406551F4D
:1004E000F2CF4695F1DF08C0161617061806991FB9
:1004F000F1CF86957105610508940895E894BB27AE
:1005000066277727CB0197F908950AD080C071D06C
:1005100028F076D018F0952309F062C067C0EFCFBD
:10052000CBDFA8F39923D9F35523C9F3950F50E0F6
:10053000551FAA27EE27FF27BB270024089467959D
:1005400020F4E20FF31FB41F0A1E220F331F441FB3
:10055000AA1F6695A9F7779530F4F30FB41F0A1E0A
:10056000121E08F46395330F441FAA1F221F7695AD
:1005700099F7879520F4B40F0A1E121E631F440FCB
:10058000AA1F221F331F8695A9F7862F712D602D74
:1005900011249F5750408AF0E1F088234AF0EE0F73
:1005A000FF1FBB1F661F771F881F91505040A9F780
:1005B0009E3F510570F014C0A2CF5F3FECF3983E10
:1005C000DCF3869577956795B795F795E7959F5FE7
:1005D000C1F7FE2B880F911D9695879597F9089581
:1005E00097F99F6780E870E060E008959FEF80ECE6
:1005F000089500240A941616170618060906089589
:1006000000240A9412161306140605060895092EEE
:100610000394000C11F4882352F0BB0F40F4BF2B5D
:1006200011F460FF04C06F5F7F4F8F4F9F4F08959D
:10063000991B79E004C0991F961708F0961B881F34
:100640007A95C9F78095089597FB072E16F40094C4
:1006500006D077FD08D00BD007FC05D03EF490956E
:1006600081959F4F0895709561957F4F0895AA1BBE
:10067000BB1B51E107C0AA1FBB1FA617B70710F08D
:10068000A61BB70B881F991F5A95A9F780959095BF
:0A069000BC01CD010895F894FFCFDE
:00000001FF
