S01D000054656D7065726174757265436F6E74726F6C6C65722E7372656355
S113000012C01FC01EC01DC01CC01BC01AC019C016
S113001018C017C016C05FC014C013C012C011C0EE
S113002010C00FC00EC011241FBECFEDCDBF20E005
S1130030A0E6B0E001C01D92A736B207E1F73ED0BA
S113004089C0DECF8BB780628BBF80B58E6180BDE7
S11300507894089587B3806D87BBBD9888B38F72F9
S113006088BB08958EE187BB18BA8A9A929AEADF10
S1130070F1DF08958FB9769A769909C08DB18B61B5
S11300808DB986E08A95F1F700C0769BF7CF089585
S1130090CF93C62F9298EEDF8C2FECDF929ACF91FC
S11300A0089561E08CE0F4DF61E08FE0F1DF6FEF51
S11300B089E0EEDF63E08BE0EBDF089510926500EA
S11300C0109264001092630010926200109261001A
S11300D0C9DFE7DFFFCF1F920F920FB60F921124F3
S11300E02F933F934F935F936F937F938F939F933C
S11300F0AF93BF93EF93FF93B19B06C080916000D1
S1130100816080936000CDDFB29B05C08091600068
S1130110826080936000B39B05C08091600084601E
S113012080936000B49B05C08091600088608093D8
S11301306000FF91EF91BF91AF919F918F917F915B
S11301406F915F914F913F912F910F900FBE0F9040
S10B01501F901895F894FFCFED
S9030000FC
